:100000000C945D000C9485000C9485000C94850084
:100010000C9485000C9485000C9485000C9485004C
:100020000C9485000C9485000C9485000C9485003C
:100030000C9485000C9485000C9485000C9485002C
:100040000C942D030C9485000C9485000C94850071
:100050000C9485000C9485000C9485000C9485000C
:100060000C9485000C94850000000008000201003B
:100070000003040700000000000000000000000072
:10008000250028002B0000000000240027002A0083
:10009000040404040404040402020202020203032E
:1000A0000303030301020408102040800102040836
:1000B00010200102040810205F0411241FBECFEF9E
:1000C000D8E0DEBFCDBF11E0A0E0B1E0EEE9F9E09D
:1000D00002C005900D92AE30B107D9F721E0AEE035
:1000E000B1E001C01D92AF32B207E1F710E0CDE5FB
:1000F000D0E004C02197FE010E94C704CC35D1078F
:10010000C9F70E9477030C94CD040C94000090E092
:10011000FC01EC55FF4F249180579F4FFC018491C7
:10012000882399F090E0880F991FFC01EA57FF4F50
:10013000A591B491FC01E458FF4F859194918FB73C
:10014000F894EC91E22BEC938FBF0895AF92BF929D
:10015000CF92DF92EF92FF920F931F93CF93DF9393
:100160006C017B018B01040F151FEB015E01AE18C2
:10017000BF08C017D10759F06991D601ED91FC91E4
:100180000190F081E02DC6010995892B79F7C50111
:10019000DF91CF911F910F91FF90EF90DF90CF9063
:1001A000BF90AF90089590E0FC01E859FF4F249173
:1001B000FC01EC55FF4F3491FC01E057FF4FE491F7
:1001C000EE23C9F0222339F0233001F1A8F42130C5
:1001D00019F1223029F1F0E0EE0FFF1FE458FF4F34
:1001E000A591B4918FB7F894EC91611126C0309528
:1001F0003E233C938FBF08952730A9F02830C9F0E3
:10020000243049F7809180008F7D03C08091800069
:100210008F7780938000DFCF84B58F7784BDDBCF6D
:1002200084B58F7DFBCF8091B0008F778093B00035
:10023000D2CF8091B0008F7DF9CF3E2BDACF3FB780
:10024000F8948091130190911401A0911501B0913F
:10025000160126B5A89B05C02F3F19F00196A11DD8
:10026000B11D3FBFBA2FA92F982F8827BC01CD0100
:10027000620F711D811D911D42E0660F771F881F5F
:10028000991F4A95D1F708958F929F92AF92BF928E
:10029000CF92DF92EF92FF920E941F014B015C010F
:1002A00088EEC82E83E0D82EE12CF12C0E941F018D
:1002B000681979098A099B09683E7340810591058F
:1002C000A8F321E0C21AD108E108F10888EE880EEF
:1002D00083E0981EA11CB11CC114D104E104F104F7
:1002E00029F7FF90EF90DF90CF90BF90AF909F9055
:1002F0008F900895089590E080E008958F929F92E6
:10030000AF92BF920F931F93CF93DF93CDB7DEB71A
:10031000A1970FB6F894DEBF0FBECDBF19A2423031
:1003200008F44AE08E010F5D1F4F842E912CB12CF2
:10033000A12CA50194010E949104E62FB901CA01E4
:10034000EA3044F5E05DD801EE938D01232B242B98
:10035000252B79F790E080E0109769F0FD0101907E
:100360000020E9F73197AF014A1B5B0BBD0187E124
:1003700091E00E94A600A1960FB6F894DEBF0FBED2
:10038000CDBFDF91CF911F910F91BF90AF909F9004
:100390008F900895E95CD7CF41E050E06CE071E0C8
:1003A00087E191E00C94A600CF93DF93EC0160E02D
:1003B0008E810E94D30061E08E810E94D30060E0B4
:1003C0008E810E94D3008BE891E00197F1F7DF91D5
:1003D000CF910895CF92DF92EF92FF920F931F93E8
:1003E000CF93DF936C017C0187E0E80EF11CD0E035
:1003F000C0E0062F10E0B8010C2E02C0759567957D
:100400000A94E2F76170F70181917F010E94D300A5
:100410002196C430D10579F7C601DF91CF911F91A4
:100420000F91FF90EF90DF90CF900C94D401CF927A
:10043000DF92EF92FF920F931F93CF93DF93EC0124
:10044000F62E642F8C810E94D3008D818F3F19F08E
:1004500060E00E94D3000F2D10E08F8584FF25C03F
:100460006E0187E0C80ED11CF12CE12CB8010E2CD6
:1004700002C0759567950A94E2F76170F601819163
:100480006F010E94D300FFEFEF1AFF0A88E0E81621
:10049000F10461F7CE01DF91CF911F910F91FF9091
:1004A000EF90DF90CF900C94D401B80184E0759563
:1004B00067958A95E1F7CE010E94EA016F2DCE0182
:1004C000DF91CF911F910F91FF90EF90DF90CF9030
:1004D0000C94EA0140E0682F87E191E00C94170248
:1004E000CF93DF93823029F4909126019860909306
:1004F000260180932A0110922B0180E480932C0125
:1005000080E180932D0180E580932E0180911B0175
:100510000E94870080911C018F3F11F00E9487008C
:1005200080911D010E948700C7E1D1E09E01275103
:1005300031408091260184FD0AC084E090E021963C
:10054000281739073CF48E810E948700EFCF88E09E
:1005500090E0F5CF8BE39DE00197F1F760E08091AB
:100560001B010E94D30060E080911D010E94D30016
:1005700080911C018F3F19F060E00E94D3008091B0
:10058000260184FD39C063E087E191E00E94EA0121
:10059000CBE4D6E4CE010197F1F763E087E191E087
:1005A0000E94EA012197F1F763E087E191E00E9460
:1005B000EA0183E592E00197F1F762E087E191E0DB
:1005C0000E94EA018091260180620E946A0284E012
:1005D000809327018CE00E946A0281E00E946A02F7
:1005E0008BE39FE10197F1F782E08093280186E099
:1005F000DF91CF910C946A0280620E946A028BE4C0
:1006000096E40197F1F78091260180620E946A02C8
:1006100083E592E00197F1F78091260180620E94C4
:100620006A02D0CFE1E090912A019111E0E0E195DA
:10063000F0E0E95EFE4F9489890F80680C946A02AD
:1006400041E00E94170281E090E00895BC01990FFB
:10065000880B990B4AE00C947E011F920F920FB603
:100660000F9211242F933F938F939F93AF93BF9338
:1006700080910F0190911001A0911101B091120190
:1006800030910E0123E0230F2D3758F50196A11D5F
:10069000B11D20930E0180930F0190931001A09340
:1006A0001101B09312018091130190911401A09156
:1006B0001501B09116010196A11DB11D8093130182
:1006C00090931401A0931501B0931601BF91AF91BF
:1006D0009F918F913F912F910F900FBE0F901F9080
:1006E000189526E8230F0296A11DB11DD2CF78944C
:1006F00084B5826084BD84B5816084BD85B5826027
:1007000085BD85B5816085BD80916E0081608093D7
:100710006E00109281008091810082608093810040
:100720008091810081608093810080918000816050
:10073000809380008091B10084608093B1008091AB
:10074000B00081608093B00080917A0084608093D3
:100750007A0080917A00826080937A0080917A009A
:10076000816080937A0080917A00806880937A001B
:100770001092C1009BE3C92E9FE1D92E2AE0822E60
:10078000912C30E0A32E30E0B32E82E00E94700264
:1007900082E00E946A02C6010197F1F780E00E94A0
:1007A000120381E090E00E94260388E090E00E941E
:1007B00026030E94CC0183E00E94120384E090E0B3
:1007C0000E94260383E090E00E94260385E00E94B9
:1007D00012030E94CC0190E080E00E94260390E08A
:1007E00080E00E942603D0E0C0E001E010E0EE24AB
:1007F000E394F12C82E00E946A02C6010197F1F7AE
:100800008AE0E816F1040CF048C086E00E9412036A
:1008100090E080E00E94260387E00E941203C70157
:100820000E9426030E9444018FEFE81AF80A8CE325
:10083000E816F104F9F683E00A3011053CF40E9451
:10084000120390E080E00E94260384E00E941203DD
:10085000C8010E9426030F5F1F4F0C33110539F6A4
:1008600080E0CA30D105DCF40E94120381E090E000
:100870000E94260381E00E941203CE0108960E9486
:1008800026032196C831D10509F0AFCFA114B104D8
:1008900009F47BCF0E94000078CF86E0BECF0E9493
:1008A0001203CE01B4010E947D048C01CB0101969C
:1008B0000E94260381E00E941203C801DFCFE7E116
:1008C000F1E01382128284E091E0918380838CE0D6
:1008D00084838FEF85838BE0868385E0878384E044
:1008E000808783E0818782E082871386148615865D
:1008F0001686178681E00C94700297FB072E16F47B
:10090000009407D077FD09D00E94B30407FC05D0FE
:100910003EF4909581959F4F0895709561957F4F16
:100920000895A1E21A2EAA1BBB1BFD010DC0AA1F30
:10093000BB1FEE1FFF1FA217B307E407F50720F048
:10094000A21BB30BE40BF50B661F771F881F991FC3
:100950001A9469F760957095809590959B01AC010C
:10096000BD01CF010895AA1BBB1B51E107C0AA1FFF
:10097000BB1FA617B70710F0A61BB70B881F991F40
:100980005A95A9F780959095BC01CD010895EE0F79
:0E099000FF1F0590F491E02D0994F894FFCF1D
:0E099E00000000002003A6007B017A013A0051
:00000001FF
