:100000000C9462000C9485080C945E080C948A0091
:100010000C948A000C948A000C948A000C948A0038
:100020000C948A000C948A000C948A000C948A0028
:100030000C948A000C948A000C948A000C948A0018
:100040000C9414080C948A000C948A000C948A0076
:100050000C948A000C948A000C948A000C948A00F8
:100060000C94AC080C948A000000000024002700C7
:100070002A0000000000250028002B0000000000DE
:1000800023002600290004040404040404040202DA
:100090000202020203030303030301020408102007
:1000A0004080010204081020010204081020000012
:1000B0000008000201000003040700000000000027
:1000C0000000CB0911241FBECFEFD8E0DEBFCDBFAB
:1000D00011E0A0E0B1E0ECEDF0E202C005900D927D
:1000E000AA3DB107D9F722E0AAEDB1E001C01D9207
:1000F000A03DB207E1F710E0C2E6D0E004C02197CE
:10010000FE010E94870DC136D107C9F70E94FA0986
:100110000C946C100C9400009091AB028091AA0298
:100120002FEF3FEF981748F4E92FF0E0E657FD4F27
:10013000208130E09F5F9093AB02C90108959091B8
:10014000AB028091AA022FEF3FEF981748F4E92FF6
:10015000F0E0E657FD4F208130E09F5F9093AB02C7
:10016000C901089508950895AF92BF92CF92DF928A
:10017000EF92FF920F931F93CF93DF936C017B015C
:100180008B01040F151FEB015E01AE18BF08C017ED
:10019000D10759F06991D601ED91FC910190F08160
:1001A000E02DC6010995892B79F7C501DF91CF9123
:1001B0001F910F91FF90EF90DF90CF90BF90AF9085
:1001C0000895833081F028F4813099F08230A9F0CD
:1001D00008958730A9F08830C9F08430B1F4809157
:1001E00080008F7D03C0809180008F778093800096
:1001F000089584B58F7784BD089584B58F7DFBCF36
:100200008091B0008F778093B00008958091B00006
:100210008F7DF9CFCF93DF93282F30E0F901E2559E
:10022000FF4F8491F901E656FF4FD491F901EA5747
:10023000FF4FC491CC23A1F081110E94E100EC2F6B
:10024000F0E0EE0FFF1FE458FF4FA591B491EC9141
:10025000ED2381E090E009F480E0DF91CF910895F3
:1002600080E090E0FACF1F93CF93DF93282F30E008
:10027000F901E255FF4F8491F901E656FF4FD49101
:10028000F901EA57FF4FC491CC23A9F0162F811131
:100290000E94E100EC2FF0E0EE0FFF1FEE58FF4F41
:1002A000A591B4918FB7F894EC91111108C0D09535
:1002B000DE23DC938FBFDF91CF911F910895DE2B5A
:1002C000F8CF61E08CE00C943301CF93DF9390E0A2
:1002D000FC01E656FF4F24918A579F4FFC01849101
:1002E0008823D1F090E0880F991FFC01E859FF4F57
:1002F000A591B491FC01EE58FF4FC591D4916230A5
:1003000071F49FB7F8943C91822F809583238C934E
:10031000E8812E2B28839FBFDF91CF9108958FB75F
:10032000F894EC912E2B2C938FBFF6CF3FB7F89417
:100330008091240290912502A0912602B09127027B
:1003400026B5A89B05C02F3F19F00196A11DB11D30
:100350003FBFBA2FA92F982F8827BC01CD01620F6C
:10036000711D811D911D42E0660F771F881F991F27
:100370004A95D1F708958F929F92AF92BF92CF92F4
:10038000DF92EF92FF924B015C010E9496016B019C
:100390007C010E9496016C197D098E099F09683EB7
:1003A000734081059105A8F321E0821A9108A10804
:1003B000B10888EEC80E83E0D81EE11CF11C811440
:1003C0009104A104B10429F7FF90EF90DF90CF9042
:1003D000BF90AF909F908F90089508952091FC0159
:1003E000260F3327331F21323105ECF4209184028C
:1003F000FC0190E080E0243069F082E00895A09153
:10040000FC012191AC0144525E4FA40FB52FB11DE8
:100410002C930196861798F38091FC01680F6093E6
:10042000FC0180E0089581E008951092840281E04B
:100430008093830210927E0261E082E10E94330188
:1004400061E083E10E943301E9EBF0E080818E7F7F
:10045000808380818D7F808388E48093B80085E4E9
:100460008093BC000895CF93DF9391E09093DB01DC
:100470008823B9F0C091B800D091BA008091BC0037
:100480008A7B8093BC0060E082E10E94330160E0DF
:1004900083E10E9433010E941502D093BA00C093F9
:1004A000B800DF91CF910895CF92DF92EF92FF9243
:1004B0000F931F93CF93DF93D82FC62F613208F08D
:1004C00098C00E9496016B017C0180918402811189
:1004D0006BC081E080938402809383029FEF9093AE
:1004E0008202109281029C0F9093800280937F027F
:1004F00080917F02DD0FD82BD0937F0280917E0206
:10050000813009F078C010927E020E9496016B0142
:100510007C0180917F028093BB0080918602909144
:100520008702A0918802B0918902892B8A2B8B2B9C
:10053000A1F00E94960100918602109187022091FD
:100540008802309189026C197D098E099F0906176E
:1005500017072807390708F448C08091BC0083FDBD
:10056000D8CF85EC8093BC000E9496016B017C0182
:1005700080918402813009F440C0809181028C17FF
:1005800010F4C0918102EEE5F2E0AAE8B2E080E06A
:100590008C1355C08C2FDF91CF911F910F91FF903D
:1005A000EF90DF90CF90089580918602909187021E
:1005B000A0918802B0918902892B8A2B8B2B09F498
:1005C00084CF0E94960100918602109187022091AB
:1005D0008802309189026C197D098E099F090617DE
:1005E00017072807390708F070CF809185020E940D
:1005F0003302C0E0CFCF85EEB5CF809186029091D7
:100600008702A0918802B0918902892B8A2B8B2BBB
:1006100009F4AECF0E9496010091860210918702E4
:1006200020918802309189026C197D098E099F09F9
:10063000061717072807390708F09ACFD6CF9191E8
:100640009D938F5FA5CF8F929F92AF92BF92CF92D3
:10065000DF92EF92FF920F931F93CF93DF93D0918E
:100660005D02D13208F0D7C0182FC0915C020E9401
:1006700096016B017C018091840281116BC082E044
:1006800080938402109383028FEF809382021092F2
:100690008102D0938002ACE3B2E0EEE5F2E080E0CC
:1006A000D81391C010927F0280917F02CC0FC82B8B
:1006B000C0937F0280917E02813009F088C0109241
:1006C0007E020E9496016B017C0180917F028093E3
:1006D000BB008091860290918702A0918802B09120
:1006E0008902892B8A2B8B2BA1F00E949601009105
:1006F00086021091870220918802309189026C193C
:100700007D098E099F09061717072807390708F47E
:1007100042C08091BC0083FDD8CF85EC8093BC00A3
:100720000E9496016B017C0180918402823009F461
:1007300050C0809182028F3F09F46FC08091820285
:10074000803209F46CC080918202803309F469C060
:1007500084E026C08091860290918702A091880251
:10076000B0918902892B8A2B8B2B09F484CF0E94AC
:1007700096018090860290908702A0908802B090A7
:1007800089026C197D098E099F0986169706A806AD
:10079000B90608F070CF809185020E94330285E08F
:1007A00010923B0210925D0210923A02DF91CF91BB
:1007B0001F910F91FF90EF90DF90CF90BF90AF907F
:1007C0009F908F9008959D9191938F5F69CF85EE53
:1007D000A5CF8091860290918702A0918802B09166
:1007E0008902892B8A2B8B2B09F49ECF0E949601BC
:1007F000009186021091870220918802309189022F
:100800006C197D098E099F090617170728073907F4
:1008100008F08ACFC0CF81E0C3CF80E0C1CF82E0B3
:10082000BFCF83E0BDCF0895E091AB028091AA02D3
:10083000E81730F4F0E0E657FD4F808190E008952E
:100840008FEF9FEF08958091AA029091AB02891BD0
:10085000990B0895CF92DF92EF92FF920F931F931F
:10086000CF93DF937C01CB018A0120913A022223AE
:1008700089F0EB016B01C40ED51ECC15DD0569F0C6
:100880006991D701ED91FC910190F081E02DC701B4
:100890000995F3CF642F0E94EE01C801DF91CF913B
:1008A0001F910F91FF90EF90DF90CF900895CF931D
:1008B000DF931F92CDB7DEB7698320913A022223DE
:1008C000F9F020915D02203258F021E030E0FC0187
:1008D0003383228390E080E00F90DF91CF910895E1
:1008E00080913B02E82FF0E0E45CFD4F998190831A
:1008F0008F5F80933B0280935D0281E090E0ECCFBC
:1009000061E0CE0101960E94EE01F7CF682F8CEADC
:1009100092E00C945704089590E080E00895CF93FE
:10092000CAE089E00E940A01892B21F480913902F2
:100930008530B0F08AE00E940A01892B89F08BE0B3
:100940000E940A01892B21F480913902853040F4FC
:1009500069E170E080E090E00E94BB01C15009F7BE
:10096000CF910895FC0101900020E9F73197AF0184
:10097000481B590BBC0188EB92E00C94B400CF9358
:10098000DF93EC0160E08E810E94330161E08E8193
:100990000E94330160E08E810E9433018BE891E078
:1009A0000197F1F7DF91CF910895CF92DF92EF9207
:1009B000FF920F931F93CF93DF936C017C0187E02D
:1009C000E80EF11CD0E0C0E0062F10E0B8010C2EBC
:1009D00002C0759567950A94E2F76170F7018191FD
:1009E0007F010E9433012196C430D10579F7C601F9
:1009F000DF91CF911F910F91FF90EF90DF90CF90FB
:100A00000C94BF04CF92DF92EF92FF920F931F934B
:100A1000CF93DF93EC01F62E642F8C810E9433017B
:100A20008D818F3F19F060E00E9433010F2D10E09F
:100A30008F8584FF25C06E0187E0C80ED11CF12C84
:100A4000E12CB8010E2C02C0759567950A94E2F767
:100A50006170F60181916F010E943301FFEFEF1A7F
:100A6000FF0A88E0E816F10461F7CE01DF91CF912B
:100A70001F910F91FF90EF90DF90CF900C94BF04E7
:100A8000B80184E0759567958A95E1F7CE010E94DB
:100A9000D5046F2DCE01DF91CF911F910F91FF9063
:100AA000EF90DF90CF900C94D50440E0682F88EB56
:100AB00092E00C940205CF93DF93613029F090917E
:100AC000C70298609093C7026093CB021092CC0249
:100AD00090E49093CD028093CE02805C8093CF020D
:100AE00061E08091BC020E9465018091BD028F3F50
:100AF00019F061E00E94650161E08091BE020E94F0
:100B00006501C8EBD2E09E01285B32408091C702AC
:100B100084FD0BC084E090E021962817390744F447
:100B200061E08E810E946501EECF88E090E0F4CF15
:100B30008BE39DE00197F1F760E08091BC020E9499
:100B4000330160E08091BE020E9433018091BD02BA
:100B50008F3F19F060E00E9433018091C70284FD4D
:100B600039C063E088EB92E00E94D504CBE4D6E480
:100B7000CE010197F1F763E088EB92E00E94D50483
:100B80002197F1F763E088EB92E00E94D50483E5BA
:100B900092E00197F1F762E088EB92E00E94D504C1
:100BA0008091C70280620E94550584E08093C8024C
:100BB0008CE00E94550581E00E9455058BE39FE182
:100BC0000197F1F782E08093C90286E0DF91CF912F
:100BD0000C94550580620E9455058BE496E40197BC
:100BE000F1F78091C70280620E94550583E592E08B
:100BF0000197F1F78091C70280620E945505D0CF1E
:100C00009091CB02691710F06FEF690FE62FF0E0BB
:100C1000E854FD4F9489890F80680C94550541E094
:100C20000E94020581E090E0089581E080933A02FD
:100C300088E680935C0210923B0210925D0290E085
:100C400080E00E94860480E00E94230367E088E63B
:100C50000E9454021092AB028093AA020E949F004D
:100C60008093DA010E949F00809337020E949F00C8
:100C7000809338020E949F00809336020E949F005A
:100C8000809335020E949F00809334020E949F004F
:100C900080933302089585ED8093BC008091860295
:100CA00090918702A0918802B09189020796A11DB8
:100CB000B11D23E0B695A795979587952A95D1F70D
:100CC0002091BC0024FD03C010928402089540913D
:100CD0008602509187026091880270918902452BAB
:100CE000462B472B69F30097A105B10541F025E399
:100CF0002A95F1F700000197A109B109E1CF809190
:100D000085020C943302809136026DE771E08330E6
:100D1000C1F058F46FE571E0813099F06EE671E052
:100D2000823079F069EB71E00CC06BE971E08530DD
:100D300041F06CE871E0853020F06AEA71E08630BD
:100D400089F782E391E00E948D0D809133022AE0C1
:100D5000622F0E946D0D905D90933F01805D8093A6
:100D60003E01809134020E946D0D905D90933A0196
:100D7000805D80933901809135020E946D0D905DF8
:100D800090933701805D8093360161E080E00E949E
:100D9000000682E391E00C94B2048091DA01982F6E
:100DA00092959F702AE08F70929F800D11248093FE
:100DB000DA0140913702942F92959F704F70929F65
:100DC000400D11244093370230913802932F9295B1
:100DD0009F703F70929F300D112430933802909194
:100DE0003502592F52955F709F70529F900D1124BC
:100DF0009093350290913402592F52955F709F70F5
:100E0000529F900D11249093340290913302592FE8
:100E100052955F709F70529F900D112490933302F2
:100E2000E0E0F1E0622F0E946D0D905D9783805DA0
:100E30008683842F0E946D0D905D9483805D8383F3
:100E4000832F0E946D0D905D9183805D80830E9451
:100E5000830660E080E00E94000680E091E00C9450
:100E6000B204AF92BF92CF92DF92EF92FF920F93B4
:100E70001F93CF93DF9300D01F92CDB7DEB7B82E6C
:100E8000A62E142F89E00E940A01892BD9F38BE04A
:100E90000E940A01892BB1F380EDE82E81E0F82E43
:100EA000CE0101966C018AE00E940A01892B09F0AB
:100EB00055C01F5F00913902002311F0053019F46D
:100EC000183160F411C0013011F0063049F41C33C0
:100ED00058F010E0043059F5143630F010E004C03A
:100EE0000230F9F4103208F56A2D8B2D0E940006AD
:100EF000073011F588EC91E0113011F08CEC91E0A5
:100F00000E94B20480913902853020F00E941506BB
:100F10000E94CD0668EC70E080E090E00E94BB018A
:100F2000C2CF0330B9F61D30F8F211E0DDCF073043
:100F3000D9F6123098F6D8CF1F921F93FF92EF92F6
:100F4000DF92CF920E94940DC6010E94B2040F90CE
:100F50000F900F900F900F900F90D4CF6A2D8B2D84
:100F60000E94000686ED91E00E94B2048091390251
:100F7000873021F487ED91E00E94B2040E948F0433
:100F80006A2D8B2D0E940006809139028730D1F5A1
:100F900088EC91E0113011F08CEC91E00E94B204E9
:100FA0000E948F0480913902853020F00E9415063E
:100FB0000E94CD0689E00E940A01892B21F48091CC
:100FC0003902853058F08BE00E940A01892B09F024
:100FD0006ACF80913902853008F465CF809139025B
:100FE0008F5F80933902812F0F900F900F90DF91C8
:100FF000CF911F910F91FF90EF90DF90CF90BF9016
:10100000AF9008951F921F93FF92EF92DF92CF92BD
:101010000E94940DC6010E94B2040F900F900F9091
:101020000F900F900F90BCCF1F920F920FB60F92A0
:1010300011242F933F938F939F93AF93BF938091EE
:10104000200290912102A0912202B09123023091BE
:101050001F0223E0230F2D3758F50196A11DB11D66
:1010600020931F028093200290932102A0932202DA
:10107000B09323028091240290912502A091260230
:10108000B09127020196A11DB11D80932402909377
:101090002502A0932602B0932702BF91AF919F91A2
:1010A0008F913F912F910F900FBE0F901F90189529
:1010B00026E8230F0296A11DB11DD2CF1F920F92D9
:1010C0000FB60F9211242F933F934F935F936F931B
:1010D0007F938F939F93AF93BF93EF93FF93E09191
:1010E0000B01F0910C010995FF91EF91BF91AF9128
:1010F0009F918F917F916F915F914F913F912F9130
:101100000F900FBE0F901F9018951F920F920FB661
:101110000F9211242F933F934F935F936F937F937D
:101120008F939F93AF93BF93EF93FF93E091090148
:10113000F0910A010995FF91EF91BF91AF919F91B5
:101140008F917F916F915F914F913F912F910F9070
:101150000FBE0F901F9018951F920F920FB60F920F
:1011600011242F933F934F935F936F937F938F93AC
:101170009F93AF93BF93EF93FF938091B900887FC4
:10118000803609F44AC0F0F5883209F4A7C018F592
:10119000803109F49BC0B8F4882309F4F9C0883081
:1011A00009F494C0FF91EF91BF91AF919F918F91FE
:1011B0007F916F915F914F913F912F910F900FBE53
:1011C0000F901F901895883109F488C0803251F72C
:1011D0008093820214C0803409F49DC040F48033AF
:1011E000B9F38833F9F68093820285ECB0C080357C
:1011F00009F485C0883509F496C0883499F60E94B0
:101200004B06D0CF883909F48CC038F5883729F0DF
:1012100050F4883611F0803729F683E080938402F9
:1012200010921E0257C0883809F47BC0803919F02B
:10123000803809F0B7CF80911E02803208F071C06B
:10124000E0911E0281E08E0F80931E028091BB0010
:10125000F0E0E250FE4F80833DC0803B39F0E0F487
:10126000803A09F479C0883A09F09CCF84E08093F1
:1012700084021092FD011092FC01E0912A02F0918B
:101280002B0209958091FC0181110FC081E08093B0
:10129000FC011092DC0109C0803C09F4A6CF883C17
:1012A00009F4A3CF883B09F07DCFE091FD0181E0F7
:1012B0008E0F8093FD01F0E0E452FE4F8081809319
:1012C000BB009091FD018091FC0129C080917F02BB
:1012D0008093BB0085EC8093BC0064CF9091810229
:1012E00080918002981758F5E091810281E08E0F7D
:1012F00080938102F0E0E25AFD4F8081E9CFE091D6
:10130000810281E08E0F809381028091BB00F0E02A
:10131000E25AFD4F8083909181028091800298175C
:10132000C8F285E8D8CFE091810281E08E0F8093EA
:1013300081028091BB00F0E0E25AFD4F80838091F2
:10134000830281115CCF81E080937E0284EA8093E6
:10135000BC001092840226CF85EC8093BC001092D2
:10136000840280911E02803230F4E0911E02F0E08F
:10137000E250FE4F108260911E0270E0E091280260
:10138000F09129028EEF91E0099510921E020ACF8A
:101390001092820234CFECEAF2E01382128288EEDD
:1013A00093E0A0E0B0E084839583A683B78385E4CF
:1013B00091E091838083E8EBF2E01382128287E56B
:1013C00091E09183808383E084838FEF858384E041
:1013D000868385E0878386E0808787E0818788E051
:1013E00082871386148615861686178661E080E14B
:1013F0000C945B05789484B5826084BD84B581606B
:1014000084BD85B5826085BD85B5816085BD8091CF
:101410006E00816080936E00109281008091810047
:10142000826080938100809181008160809381003F
:10143000809180008160809380008091B100846001
:101440008093B1008091B00081608093B000809162
:101450007A00846080937A0080917A008260809321
:101460007A0080917A00816080937A0080917A007E
:10147000806880937A001092C10062E089E00E9447
:10148000650162E08AE00E94650162E08BE00E94F3
:10149000650161E08CE00E94650160E08CE00E94E3
:1014A000330164E084E10E945B051092AB0210926C
:1014B000AA0210923B0210925D020E94150282EB7A
:1014C00090E090932B0280932A0283EB90E090931C
:1014D00029028093280281E691E090930A0180938B
:1014E0000901809169008C7F826080936900E89A8D
:1014F000D0E0AD2ED0E0BD2E18E6712E05E0302EE6
:1015000085E3282EC0E34C2E89E00E940A01892B36
:1015100009F0D2C0109239024091380260E080E0B8
:101520000E943107809338024091370260E083E0E7
:101530000E9431078093370289E00E940A01892BBB
:10154000D9F38AE00E940A01892BD1F480913602F6
:101550008F5F883098F4809336020E94830661E0A2
:1015600080E00E94000682E391E00E94B20468ECF1
:1015700070E080E090E00E94BB01E3CF81E0EBCF20
:1015800061E080E00E94000685ED91E00E94B204D7
:101590000E948F0461E080E00E94000682E391E0F7
:1015A0000E94B2040E948F0489E00E940A01892BE4
:1015B00041F64091350261E084E00E94310780935A
:1015C00035024091340261E087E00E943107809348
:1015D00034024091330261E08CE00E943107382FE1
:1015E000809137022AE0622F0E946D0D8295807FE4
:1015F000F82EF90EF0923702809138020E946D0D9C
:101600008295807F082F090F009338028091350260
:101610000E946D0D8295807F182F190F109335024F
:10162000809134020E946D0D8295807FD82FD90F52
:10163000D0933402832F0E946D0D8295807FC82F36
:10164000C90FC093330281E080933A0270925C022A
:1016500010923B0210925D0290E080E00E948604AE
:1016600090E080E00E9486046F2D8CEA92E00E9458
:101670005704602F8CEA92E00E9457046091360272
:101680008CEA92E00E945704612F8CEA92E00E945B
:1016900057046D2F8CEA92E00E9457046C2F8CEA5D
:1016A00092E00E94570481E00E94230368EC70E0FE
:1016B00080E090E00E94BB018BE00E940A01892B30
:1016C00009F0B1C08BE00E940A01892BD9F3309256
:1016D00039024091320262E084E00E943107809337
:1016E00032024091310262E087E00E94310780932C
:1016F00031024091300262E081E10E94310791E0C5
:10170000811101C090E090933002309239024091F3
:101710002F0263E084E00E94310780932F02409102
:101720002E0263E087E00E94310780932E024091F1
:101730002D0263E081E10E943107C1E0811101C007
:10174000C0E0C0932D02809131022AE0622F0E94F6
:101750006D0D8295807FF82EF90EF0923102809106
:1017600032020E946D0D8295807F082F090F009331
:10177000320280912E020E946D0D8295807F182F7B
:10178000190F10932E0280912F020E946D0D8295E9
:10179000807FD82FD90FD0932F0281E080933A0217
:1017A00070925C0210923B0210925D0287E090E022
:1017B0000E94860490E080E00E9486046F2D8CEAEF
:1017C00092E00E945704602F8CEA92E00E94570436
:1017D00080E890E00E948604612F8CEA92E00E94EB
:1017E00057046D2F8CEA92E00E94570480E890E045
:1017F0000E9486042091300230E024608C2F90E01B
:10180000880F991F822B932B0E94860490E080E022
:101810000E94860481E00E94230368EC70E080E06F
:1018200090E00E94BB018AE00E940A01892BB9F571
:101830008CE00E940A01892B91F160E08CE00E940B
:101840003301C1E0C0933A0270925C0210923B02F5
:1018500010925D028EE090E00E94860420912C029E
:1018600021FB882780F98C2790912D02892390E015
:10187000880F991F209530913002232320FB882464
:1018800080F8912C94012460822B932B0E94860473
:1018900090E080E00E94860481E00E9423030E9481
:1018A000150681E080933A0270925C0210923B022E
:1018B00010925D0288E090E00E94860480E00E9421
:1018C00023036BE088E60E9454021092AB028093DF
:1018D000AA020E949F006C010E949F007C010E944E
:1018E0009F000E949F008C010E949F00EC010E94BB
:1018F0009F000E949F00582E0E949F0080932C0200
:101900000E949F000E949F00682E0E949F009C01E1
:10191000B60194E0759567959A95E1F76F70772712
:101920004AE08C2D8F70469F800D112480933102E8
:10193000B70154E0759567955A95E1F76F70772771
:101940009E2D9F70E92E469FE00C1124E0923202FA
:10195000B801E4E075956795EA95E1F76F70772730
:101960000F70469F000D112400932E02BE01F4E07B
:1019700075956795FA95E1F76F707727CF70469F59
:10198000C00D1124C0932F02642F0E946D0D905D35
:1019900090932D01805D80932C018E2D0E946D0D02
:1019A000905D90932A01805D80932901802F0E9491
:1019B0006D0D905D90932001805D80931F018C2FB1
:1019C0000E946D0D905D90931D01805D80931C01C0
:1019D000852D81708093300251FA552450F8509231
:1019E0002D0267FE61C061948DE280930F0186E055
:1019F000359527958A95E1F723703327322F862D69
:101A00006AE00E94790D905D90931101805D809352
:101A100010012D7F09F059C040921401311148C0C6
:101A2000409213018FED8093150160E08AE00E94DF
:101A300000068DE091E00E94B20462E080E00E9426
:101A4000000685E291E00E94B20462E081E10E941A
:101A5000000680913002882391F188EC91E00E9489
:101A6000B20463E080E00E94000688E191E00E94F9
:101A7000B20463E081E10E94000680912D02882378
:101A800009F188EC91E00E94B2040E94CD0662E365
:101A900070E080E090E00E94BB01A114B10409F461
:101AA00033CD0E9400002ECD90E290930F019FCF86
:101AB00020921301B7CF97E390931301B3CF8CEC2F
:101AC00091E0CDCF8CEC91E0DECF2092140131304B
:101AD00091F782E380931301A5CF991B79E004C0AD
:101AE000991F961708F0961B881F7A95C9F780955D
:101AF000089587FB082E062687FD819567FD619571
:101B00000E946D0D0EF4919507FC81950895EE0FDE
:101B1000FF1F0590F491E02D0994FB01DC01019079
:101B20000D920020E1F70895AEE0B0E0EAE9FDE0B3
:101B30000C9443100D891E8986E08C831A830983D7
:101B40008FEF9FE79E838D83AE01475E5F4F6F8966
:101B5000788DCE0101960E94B70D2F813885020F36
:101B6000131FF80110822E96E4E00C945F10ABE096
:101B7000B0E0EDEBFDE00C9435107C013B018A01F7
:101B8000FC0117821682838181FFC8C1CE010196B4
:101B90005C01F7019381F30193FD859193FF81919E
:101BA0003F01882309F453C1853239F493FD8591AF
:101BB00093FF81913F01853229F4B70190E00E94A3
:101BC000A70FE7CF912C212C312CFFE1F31538F032
:101BD0008B3211F190F4803209F1833229F137FC14
:101BE0003CC020ED280F2A3050F536FE20C08AE098
:101BF000989E200D1124922E06C08D3291F08033D4
:101C000071F7689430F8F30193FD859193FF81910A
:101C10003F018111DACF21C0689431F8689432F81D
:101C2000F2CF689433F8EFCF689434F8ECCFEAE061
:101C30002E9E200D1124222E689435F8E4CF8E328A
:101C400029F436FC04C1689436F8DDCF8C3619F4DB
:101C5000689437F8D8CF8836B1F2982F9F7D955485
:101C60009330E0F08336A1F18337C1F1833509F079
:101C700063C02801F2E04F0E511CF801C080D180F2
:101C8000692D70E036FC02C06FEF7FEFC6010E9445
:101C9000910F4C01689437F882010AC00C5F1F4F06
:101CA000FFE3F98388248394912C6501E89437F845
:101CB00033FE2DC0522C8114910471F5552009F486
:101CC00068CFB70180E290E00E94A70F5A94F6CF48
:101CD000F801808189830E5F1F4FE4CF2801F2E075
:101CE0004F0E511CF801C080D180692D70E036FC88
:101CF00002C06FEF7FEFC6010E949C0F4C01820172
:101D0000D5CFB70180E290E00E94A70F2A94281453
:101D1000190409F0B0F7CECFF60137FC859137FEF4
:101D200081916F01B70190E00E94A70F51105A9462
:101D3000F1E08F1A9108BFCF843619F0893609F087
:101D400077C0F80137FE6BC0608171818281938119
:101D50000C5F1F4FF32DFF763F2E97FF09C0909524
:101D60008095709561957F4F8F4F9F4F689437F89E
:101D70002AE030E0A5010E94D70FC82ECA188C2C8B
:101D8000432C36FE0CC0E89440F8C91440F434FEED
:101D900005C032FC03C0F32DFE7E4F2E892C44FE7D
:101DA00095C0FE01EC0DF11D8081803309F087C0E4
:101DB000242D297E422E842D8870582E43FC95C0F8
:101DC00040FE8FC09C2C821418F42C0C922C981876
:101DD00044FE91C0B70180E390E00E94A70F42FE4D
:101DE00009C088E790E041FE02C088E590E0B701B5
:101DF0000E94A70FC91408F48AC0CA94D12C9FEF7F
:101E0000C91AD90ACA0CDB1CF60182916F01B7010D
:101E100090E00E94A70FAC14BD04B1F74FCF6081D2
:101E20007181072E000C880B990B0E5F1F4F92CF0C
:101E3000D32CE894D4F82AE030E0853739F1232D0B
:101E4000297FD22E8F3601F148F48835A9F0F701A9
:101E5000868197812B96E2E10C945110803749F0EE
:101E60008837A9F7D4FE02C06894D2F820E130E0A8
:101E70000DC06894D4F8F6CF34FE03C0822F86607C
:101E8000D82E20E132E002C028E030E0F801D7FE91
:101E90000FC060817181828193810C5F1F4FA5010A
:101EA0000E94D70FC82ECA183D2CE89437F867CF88
:101EB0006081718190E080E00E5F1F4FF0CF42FCA7
:101EC00002C0839478CF8394839475CF842D8678D1
:101ED00009F471CFF6CFB70180E290E00E94A70F1E
:101EE00083948214C0F3512C73CF522C581882144F
:101EF00008F46ECFF8CF842D867809F47BCF8BE27F
:101F000041FE80E247FC8DE2B70190E071CFB7015E
:101F100080E390E00E94A70F9A946CCF8FEF9FEF21
:101F200099CFFC010590615070400110D8F7809561
:101F300090958E0F9F1F0895FC0161507040019095
:101F40000110D8F7809590958E0F9F1F08950F93DD
:101F50001F93CF93DF93182F092FEB018B8181FD06
:101F600009C01FEF0FEF812F902FDF91CF911F91AD
:101F70000F91089582FF14C02E813F818C819D8135
:101F8000281739073CF4E881F981CF01019699833C
:101F9000888310838E819F8101969F838E83E3CFF8
:101FA000E885F985812F0995892BA1F3DACFFA010C
:101FB000AA27283051F1203181F1E8946F936E7F88
:101FC0006E5F7F4F8F4F9F4FAF4FB1E03ED0B4E079
:101FD0003CD0670F781F891F9A1FA11D680F791FBA
:101FE0008A1F911DA11D6A0F711D811D911DA11DCB
:101FF00020D009F468943F912AE0269F11243019DB
:10200000305D3193DEF6CF010895462F4770405D75
:102010004193B3E00FD0C9F7F6CF462F4F70405D24
:102020004A3318F0495D31FD4052419302D0A9F77F
:10203000EACFB4E0A6959795879577956795BA9579
:10204000C9F700976105710508959B01AC010A2E3F
:1020500006945795479537952795BA95C9F7620F16
:10206000731F841F951FA01D08952F923F924F92BA
:102070005F926F927F928F929F92AF92BF92CF9218
:10208000DF92EF92FF920F931F93CF93DF93CDB721
:10209000DEB7CA1BDB0B0FB6F894DEBF0FBECDBF99
:1020A00009942A88398848885F846E847D848C846A
:1020B0009B84AA84B984C884DF80EE80FD800C8173
:1020C0001B81AA81B981CE0FD11D0FB6F894DEBF56
:0C20D0000FBECDBFED010895F894FFCFC6
:1020DC0020203A20203A202000ED01ED01543A2036
:1020EC0020202E202020430041323A2020203A206C
:1020FC00203A30300041313A2020203A20203A302A
:10210C0030002020202020202F20202F3230202093
:10211C00000000000057042A048C04130423048CD0
:10212C00001404000000000F06B4008C048B045350
:10213C00756E2020202F20202F32302020004D6F54
:10214C006E2020202F20202F323020200054756547
:10215C002020202F20202F32302020005765642093
:10216C0020202F20202F3230202000546875202072
:10217C00202F20202F323020200046726920202072
:10218C002F20202F32302020005361742020202F4C
:10219C0020202F32302020004F4E20004F4646008A
:0A21AC0025303275002020200000CD
:00000001FF
